:400000000080002011000000A9080000A908000008B5044B1A6803F53F5302331A6000F063FC00BFFA46004010B5054C237833B9044B13B10448AFF300800123237010BDB6
:400040009882FF1F000000004C280000084B10B51BB108490848AFF300800848036803B910BD074B002BFBD0BDE81040184700BF000000009C82FF1F4C280000C880FF1F78
:400080000000000008B5044A136801331360002001F016FA08BD00BFB482FF1F684620F007018D4619B572B6EFF311841E4B1B68DBB20F2B10D9103B23F0030202F1604280
:4000C00002F564421168DB0003F01803E0229A400A4022FA03F306E00F2B03D1134B1B681B0E00E0002383F31188114A136801331360012B01D101F0A1FD62B6FFF7C2FFE0
:4001000072B684F3118801F0D5FB094A1368013B13601BB901F09BFD01F05FFD62B6BDE819408546704700BF04ED00E020ED00E04C83FF1F08B562B645F6BF52064B1A60B1
:40014000064A136843F00203136000F03BFF002001F09EFCFEE700BF14E000E010E000E010B500F05BFA00F0C9FC00F035FD00F09FFD00F0E9FE00F073FE00F005FE01F063
:40018000EBFC104A136843F0050313600E4800F033FF0E4C204600F02FFF0D4800F02CFF0C4800F029FF204600F026FF012000F043FF032000F040FF042000F03DFF01F042
:4001C000ADFC10BD10E000E050280000B82800006C2800009028000010B582B000240194072001F093FA01A9012001F0EFF9019801F0BEF9019B13F0010F06D113F0020F41
:4002000005D113F0040F04D104E0012402E0022400E00324002CE3D0204600F055F8DFE708B500F0CDFB012804D10121084601F0EDF908BD00F0CCFB012802D1022101F057
:40024000E5F908BD10B501F09BFE0A4B83FB0023A3EBE07303EB4303C31A0133DBB2064C23704FF47A7000FB03F000F0BBFB207810BD00BF565555553C83FF1F10B501F031
:400280007FFE0A49084003D5013860F0010001300130C1B2064C2170002000F097F92178012000F093F9207810BD00BF010000803D83FF1F08B5034A13680133136001F096
:4002C0002DFC08BDB882FF1F664B1B680A2B00F3C78030B5ADF5177D0446634B1B79012B15D013B1022B2BD0B6E00138C0B2012800F2B28000F092F9FFF7A4FF0022014666
:40030000012000F05FFF0122574B1A71A4E0032840F0A280012000F003FFFFF7AFFF524D00242C6001221146204600F04BFF22464FF47A71042000F045FF02232B718BE0C3
:40034000032804D1494800F057FE00F067F9651EEDB2012D31D8002000F0E2FE012C03D1434B1B78022B05D0022C21D1404B1B78012B1DD13C4B1B68B3F57A7F18DA3D4870
:4003800000F03AFE3C4800F037FE374C22683B4964A801F02FFE64A800F02EFEA3680133A360E26823681344E36000F037F904E0334800F021FE00F031F92A4A136801330D
:4003C0001360022D19D80A2B17DC2E4800F014FE2D4800F011FE234B1A68284964A801F009FE64A800F008FE284800F005FE284800F002FE00221C4B1A711A4B1B680A2BFB
:400400002ADD204800F0F8FD224800F0F5FD164CA2682149684601F0EDFD684600F0ECFDE2681E4932A801F0E5FD32A800F0E4FDA268002A04DDE368B3FBF2F3236102E0D4
:400440000022094B1A61084B1A69154964A801F0D1FD64A800F0D0FD00200DF5177D30BD00207047CC80FF1FB882FF1FBC2800003D83FF1FC8280000EC2800007C2900001C
:40048000042900001C2900004829000090280000B82800006829000074290000842900009C29000008B505220A21022000F08AFE254B1868FE280FD85B686BB9224B9B6824
:4004C00053B9C0B2C243D2B2002100F0B1F81E4A13680133136034E0FF2815D11A4B5968FE2911D89B687BB9C9B2C8430022C0B200F09EF8144A536801335360FF2B20D168
:400500000022114B1A601CE0B0B90F4B5B68FF2B12D10D4B9A68FE2A0ED8D2B2D143C9B200F086F8084A936801339360FF2B08D10022054B5A6004E0034B00221A605A6020
:400540009A60002008BD00BFCC82FF1F38B5174BDB68082B25DC164D03EB43035A002A4492880A21032000F02DFE104CE36803EB43035A00A85C00F0BDFBE36803EB430369
:400580005A002A44507800F021FCE36803EB43035A001544A87800F085FCE3680133E36002E00022014BDA60002038BDCC82FF1FB829000008B5FFF775FF01F0AFFA08BDA7
:4005C00008B5FFF7C3FF01F0A9FA08BD0F290ED838B50C46054600F0E7F9064B185D064B5C55064B585500F0D9F9002038BD6FF013007047F0290000D080FF1FDC82FF1FEC
:4006000008B5FF22044B1A5400F0CEF9002000F0C5F9002008BD00BFD080FF1F08B50020FFF7EEFF0120FFF7EBFF002008BD00BF70B50E461546074C14F8100000F05AFB9B
:4006400014F8160000F0C2FB34F8150000F02AFC002070BD042A0000FEE700BFF0B40022174611E050F82760F3B226F0FF0608E001EB420511F812406D78A5550132013BCE
:40068000DBB2002BF4D10137192FEBD9F0BC7047064B1B78DBB203F00701054A11701B09013213704422034B1A707047CF0100496E5800407658004008B50A46002101F0BF
:4006C00056FC08BD38B51925284B1D801823284A137040F2CF7227490A8002310B7002310A80254A13700222244B1A7008224FF040231A70032103F500731970204B1B7825
:40070000DBB220490B70204B1A8041F25122023B1A8000240CE01D4B1B7803F0010343EA440404F003044FF4F07001F039FA013D0DB1032CEFD115B90320FFF78DFF144BD0
:400740004FF480721A8007221A70002211490A704820023108701A700222033B1A700E4A137843F00703137038BD00BF8040004082400040844000408A400040004300408E
:4007800008010049A146004022420040254200400440004006400040A243004008B501F0DBFB08BD38B572B600240CE02C4D630019194A0011462A44084691882858FFF7DE
:4007C0007BFF0134E4B2062CF0D926494FF09040FFF744FF244A137843F0020313701032137843F002031370204C237843F040032370A2F58632513A137843F01003137088
:4008000008221B491B48FFF7C9FF0A221A491B48FFF7C4FF08221A491A48FFF7BFFF082219491A48FFF7BAFF082219491948FFF7B5FF194A137843F008031370174D6123F0
:400840002B70FFF73FFF81232B700122144B1A70FFF71EFF0E2221461248FFF79FFF38BD042C00006800004803500140A043004044080048025100404C080048C051004026
:40088000580800481251004060080048225100406808004832510040224300400048004004000840B043004008B501F029FB03680C2B00D1FEE7FEE708B5094B1A6810446D
:4008C000084BC31A802B02DC054B186005E001F017FB0C2303604FF0FF32104608BD00BFD480FF1FA88DFF1F08B5104E104D16E029686B68AC68002204E051F8040B43F86F
:40090000040B0432A242F8D1E868002203E0002143F8041B04328242F9D11035013E002EE6D101F0F3FAFFF705FCFEE701000000C02F000008B5104A104B1A60104A13685D
:4009400043F40073136000230AE0032B03D80D4A52F8231000E00C490C4A42F8231001332F2BF2D90A4B1A780A4B1A70074A0A4B1A60FFF717FF08BD0004FA050CED00E08C
:4009800014ED00E000000000A90800000080FF1FBC760040C080FF1F08ED00E0014B1870704700BF79650040044A137803F0DF03400100F0200018431070704730510040A8
:4009C000024B1878C0F3C000704700BF01510040024B1878C0F30010704700BF0151004001BE704710B5044605E0084B186801F0D7F8A4F50044B4F5004FF6D8034B586849
:400A000000FB04F001F0CCF810BD00BFD880FF1F38B504460D46072902D90020FFF7E0FF1F2C02D90020FFF7DBFF04F01F0000F1604000F564406D01EDB2057038BD00BFFD
:400A4000024A137843F080031370704773640040014B1870704700BF03640040014B1870704700BF43640040014B1870704700BF23640040014B1870704700BF83640040F4
:400A8000014B1878704700BF63640040014B1878704700BF5364004008B501E0FFF7F6FFFFF7EEFF10F0100FF8D108BD10B5114A137803F0C00343F0090313700E4C237863
:400AC00043F001032370FF20FFF7C2FFFF20FFF7C5FF7F20FFF7C8FF0020FFF7CBFF01F067F8237843F01003237001F065F8FFF7D3FF10BD736400409364004008B5054B3F
:400B00001B7823B9FFF7D2FF0122024B1A70FFF797FF08BDDE82FF1F024A137843F08003137070477D640040014B1870704700BF0D640040014B1870704700BF4D64004098
:400B4000014B1870704700BF2D640040014B1870704700BF89640040014B1878704700BF69640040014B1878704700BF5D64004008B501E0FFF7F6FFFFF7EEFF10F0100FA6
:400B8000F8D108BD08B5124A137803F0C00343F0090313702032137843F001031370FF20FFF7C2FFFF20FFF7C5FF7F20FFF7C8FF0020FFF7CBFF00F0FBFF064A137843F011
:400BC0001003137000F0F8FFFFF7D2FF08BD00BF7D6400409964004008B5054B1B7823B9FFF7D0FF0122024B1A70FFF795FF08BDDF82FF1F024A137843F0800313707047FF
:400C000072640040014B1870704700BF02640040014B1870704700BF42640040014B1870704700BF22640040014B1870704700BF82640040014B1878704700BF62640040A6
:400C4000014B1878704700BF5264004008B501E0FFF7F6FFFFF7EEFF10F0100FF8D108BD10B5114A137803F0C00343F0090313700E4C237843F001032370FF20FFF7C2FF5B
:400C8000FF20FFF7C5FF7F20FFF7C8FF0020FFF7CBFF00F08DFF237843F01003237000F08BFFFFF7D3FF10BD726400409264004008B5054B1B7823B9FFF7D2FF0122024B21
:400CC0001A70FFF797FF08BDE082FF1F024A137843F08003137070477C640040014B1870704700BF0C640040014B1870704700BF4C640040014B1870704700BF2C64004064
:400D0000014B1870704700BF8C640040014B1878704700BF6C640040014B1878704700BF5C64004008B501E0FFF7F6FFFFF7EEFF10F0100FF8D108BD10B5114A137803F0CE
:400D4000C00343F0090313700E4C237843F001032370FF20FFF7C2FFFF20FFF7C5FF7F20FFF7C8FF0020FFF7CBFF00F021FF237843F01003237000F01FFFFFF7D3FF10BD1D
:400D80007C6400409C64004008B5054B1B7823B9FFF7D2FF0122024B1A70FFF797FF08BDE182FF1F024A137843F08003137070477B640040014B1870704700BF0A640040E6
:400DC000014B1870704700BF4A640040014B1870704700BF2A640040014B1870704700BF8A640040014B1878704700BF6A640040014B1878704700BF5A64004008B501E0DD
:400E0000FFF7F6FFFFF7EEFF10F0100FF8D108BD10B5114A137803F0C00343F0090313700E4C237843F001032370FF20FFF7C2FFFF20FFF7C5FF7F20FFF7C8FF0020FFF734
:400E4000CBFF00F0B5FE237843F01003237000F0B3FEFFF7D3FF10BD7B6400409A64004008B5054B1B7823B9FFF7D2FF0122024B1A70FFF797FF08BDE282FF1F024A137817
:400E800043F080031370704778640040014B1880704700BF106A0040014B1880704700BF906A0040014B1880704700BF506A0040014B1870704700BF8B640040014B1878D5
:400EC000704700BF6B640040014B188880B27047B06A004008B501E0FFF7F6FFFFF7EEFF10F0100FF8D108BD08B5154A137803F0C00343F00903137002F59072137843F04F
:400F0000010313700132137843F001031370FF20FFF7BCFFFF20FFF7BFFF7F20FFF7C2FF0020FFF7C5FF00F043FE064A137843F01003137000F040FEFFF7CCFF08BD00BF97
:400F4000786400409B64004008B5054B1B7823B9FFF7CAFF0122024B1A70FFF78FFF08BDE382FF1F7222084B1A70202201331A700622A3F5AF731A70472210331A700022E0
:400F800003F24F131A7070478865004010B500F00FFE04460A4A137843F0200313700132137843F0100313700132137843F01003137000F033F8204600F0FEFD10BD00BFA2
:400FC0009865004008B5054B1B7823B9FFF7CAFF0122024B1A70FFF7D9FF08BDE482FF1F034B1B7813F0040FFAD1024B187070476A6500404B65004038B5074B1B782BB965
:4010000038BDFFF7EDFF0134A4B201E005460024285D0028F5D138BDE482FF1F054A137843F0010313701032137843F001031370704700BFA243004038B5EFF3108572B6D0
:4010400004284ED82D4B53F82030002B4BD02B4A013B42F820302A4B53F82030032B07D10222274B43F820200022264B43F8202000F090FC244B1B68002B36D1234B1C68C3
:4010800000F066FCB0F1FF3F31D0214B53F82020204B1B689A422CD9B4F1FF3F03D00221174A42F824101C4A52F820201343194A13600022124B43F8202000F005FC174B27
:4010C00053F820304BB10024144B43F8204040F0004000F0C5FD20460CE000F0C1FD002008E0032006E0042004E0002002E0002000E0002085F3108838BD00BF4081FF1F3B
:40110000EC81FF1F1083FF1F4C83FF1FD481FF1F582E00002C83FF1F382E0000E882FF1FEFF3108272B604283CD803012249CB58002B39D010B400EB40018B001F49CC5829
:401140001F4B03EBC4035968884209D11A4B03EB0013D9681A4B03EBC40461600DE01946154B03EB0113DB689842F8D1124B03EB0014E46803EB0111CC600F4B03EB0013A2
:40118000DC68B4F1FF3F08D00B4B03EB0011896803EB04139C6821449960030100200649C85005E0032000E0052082F31088704782F3108810BC70477C83FF1FA02D0000AD
:4011C000FC80FF1FF8B5EFF3108472B6042825D800EB4005AB00184DEB5803EB4306B500164E75598D421BD34AB103EB43039E00124B1E44B3689A4214D3954214D3A9B101
:4012000003010F4DEB589BB90301EE180127EF507260013900F086F800200AE0032008E0082006E0082004E0082002E0082000E0072084F31088F8BDA02D0000042E0000A1
:401240007C83FF1F18B108B5C368984708BD704708B508B1406800E00020042816D80C4B53F8203093B10A4A013B42F82030094B53F82030032B07D10222064B43F82020D8
:401280000022054B43F8202000F084FB08BD00BF4081FF1FEC81FF1F1083FF1F18B1034640689B6801E00023184604281DD80F4A52F82020CAB10E4A52F82010032914D0B3
:4012C00010B50C4C54F820201A4344F820200A4A52F82020134207D0012905D10222044B43F8202000F056FB10BD7047102E0000EC81FF1F1083FF1FFC82FF1F80B108B5AB
:401300000378012B06D013B1032B06D008BDFFF79FFF08BDFFF7C2FF08BDFFF793FF08BD704700BF30B400EB40029300214AD258214B03EBC2035C68B4F1FF3F04D11E4BCE
:4013400003EBC20250602DE01C4B03EB04139B6899420AD2184D05EBC2025060174A02EB04125B1A93601DE01C46144B03EB04139A68891ADB68B3F1FF3F05D00F4A02EB9B
:40138000031292689142EFD2B3F1FF3F05D00B4A02EB031295686D1A9560084A02EB0414E0601C46054B03EB00108160C46030BC704700BFA02D0000FC80FF1F7C83FF1FD1
:4013C00038B5394A02EBC0035C6852F83030013342F8303000EB40018A0034498A58934203D90022304B43F83020B4F1FF3F59D02F4B03EB04139B68002B4ED1214600E084
:4014000019462B4B03EB0113DB68B3F1FF3F05D0274A02EB03129268002AF1D0244A02EB01114FF0FF32CA601F4A02EBC0004360B3F1FF3F07D01E4A02EB03139A68013A62
:401440009A6000E02C4604EB44029300194A13441B7A7BB904EB44029300164A13445A68154B53F8223003EB83039A0013481044FFF744FF0E4B03EB0413DD68596821B16B
:4014800001392046FFF74EFF03E024010022084B1A51B5F1FF3FD5D138BD054A02EB0414013BA36038BD00BFFC80FF1F042E00007C83FF1FA02D0000F02D00003C2D00005F
:4014C00038B5EFF3108572B6002838D1FFF778FF204B1B68002B34D11F4B1C6800F038FAB0F1FF3F2FD01D4B53F820201C4B1B689A422AD9B4F1FF3F03D00221194A42F884
:401500002410194A52F820201343154A13600022144B43F8202000F0D7F9144B53F820304BB10024114B43F8204040F0004000F097FB20460AE000F093FB002006E00320AC
:4015400004E0002002E0002000E0002085F3108838BD00BF4C83FF1FD481FF1F582E00002C83FF1FEC81FF1F382E0000E882FF1FEFF3108372B6114A1168114A126882B9F4
:40158000B1F1FF3F0FD00F4A52F821206AB110B40D4C54F8212022EA000044F82100002007E0022002E0022000E0012083F31088704783F3108810BC704700BFD481FF1FA4
:4015C0004C83FF1F102E00001083FF1F04280FD80B4B53F820306BB10A4B53F82030032B0AD059B1084B53F820300B60002070470320704701207047072070470E20704748
:40160000102E0000EC81FF1F1083FF1F38B5EFF3108472B6042853D8324B53F82030002B50D0314B53F82030032B4DD02F4D55F820200A4345F820202D4A52F82020114262
:4016400044D0012B44D10222274B43F8202000F0A1F9284B1B68002B3CD1274B1D6800F077F9B0F1FF3F37D0244B53F82020244B1B689A4232D9B5F1FF3F03D002211A4AFE
:4016800042F825101F4A52F8202013431C4A13600022154B43F8202000F016F91A4B53F820304BB10025184B43F8205040F0004000F0D6FA284612E000F0D2FA00200EE014
:4016C00003200CE001200AE0072008E0002006E0002004E0002002E0002000E0002084F3108838BD102E0000EC81FF1F1083FF1FFC82FF1F4C83FF1FD481FF1F582E000095
:401700002C83FF1F382E0000E882FF1F38B5EFF3108472B6364B1D68364B1B68002B5DD1B5F1FF3F5CD0344B53F82530002B59D0324B53F82530034256D1314B43F8250018
:401740000122304B43F825202F4B53F825002F490B6823EA00030B602D4B43F825202D4B53F82520224B1A6000F0F2F8B0F1FF3F06D0294B53F82020244B1B689A420DD8D3
:401780001B4B1868B0F1FF3F03D000221D4B43F8202040F0004000F063FA1AE00021194A42F82010184A52F820201343174A136000F08AF8164B53F8203043B10022144BEE
:4017C00043F8202040F0004000F04AFA01E000F047FA00200A4B43F8250006E0022004E0022002E0012000E0002084F3108838BDD481FF1F4C83FF1F102E00001083FF1F7F
:40180000FC82FF1FEC81FF1F382E00002C83FF1FE882FF1FD881FF1F582E000008B500F053F8084B53F8203043B10022054B43F8202040F00040044B186008BD024B186041
:4018400008BD00BFE882FF1F5083FF1F10B500F07FF8124B1B68B0F1FF3F1AD0104A52F82010104A1268914213D9B3F1FF3F03D002240D4941F8234000210B4B43F8201080
:401880000A4B53F820301A43064B1A60FFF7C6FF10BD43F00043064A136010BDD481FF1F582E00002C83FF1FEC81FF1F382E00005083FF1F034B1B6813B10022014B1A605D
:4018C000704700BF4083FF1FF0B4184B19880B0A174AD356B3F1FF3F01D1535601E008335BB2144D55F82320134850F82200134E56F8224045F82340114D2F6846F8227098
:401900002A60B4F1FF3F09D10E4A42F82340012202FA03F321EA0301044B19800A4B19680A4A42F820101860F0BC70472883FF1F302C00009481FF1F5483FF1F1881FF1FEC
:401940002483FF1F5481FF1FD481FF1FD881FF1F0C4B1A88130A0C49CB56B3F1FF3F01D18B5601E008335BB2B3F1FF3F06D0074A52F82320064B53F8220070474FF0FF3002
:40198000704700BF2883FF1F302C00009481FF1F5483FF1F30B4144B53F82020134C2368134951F823502560124C44F823004FF0FF3441F82340104951F82210A1420AD1B2
:4019C0000E4951F820400E480188214301800D4941F8223002E0064840F82130064941F8223030BC704700BF2C81FF1F2483FF1F1881FF1F5483FF1F5481FF1F582E000098
:401A00002883FF1F9481FF1F10B150F8210070474FF0FF30704700BF0122014B1A60FEE74883FF1F70B50546124B53F8306000241CE0104B03EBC50321465868FFF7E4FF55
:401A40000D4A52F82030013B42F820300B4B53F82030032B07D10222084B43F820200022074B43F82020FFF795FF0134B442E0D370BD00BF302D00004081FF1FEC81FF1FBC
:401A80001083FF1F18B908B5FFF7CCFF08BD7047194B1A4ADA621A4A9A631A4ADA63EFF3108272B6184B1B6813BB10B5044600F053F8164B1C600122134B1A602046FFF7D6
:401AC000E1FFFFF745FFB0F1FF3F0ED0104B53F82030104A11680B43136000220E4B43F82020FFF7F1FE00F0BBF862B6FFF794FF82F31088072070470080FF1F211C0000A0
:401B0000E51B00009D0000004883FF1F9C8BFF1F382E00002C83FF1FEC81FF1F08B5EFF3108272B6094B1968094B1B6833B94FF0FF30084B43F82100002000E0022010B923
:401B4000084600F0E6F882F3108808BDD481FF1F4C83FF1F0481FF1F38B50D4B1D68EFF3108472B600F02CF80A4A136843F07F431360094B2B6405210020FEF749FF074A0A
:401B8000136843F00103136084F3108838BD00BF08ED00E020ED00E02102000000E100E00230800803D000BF01380046FCD17047EFF3108072B6704780F31088704700BF76
:401BC00018484FF47F0102680A43026016486FF07F4102680A400260704714484FF080510160704772B611484FF000610160FFF72DFE0F48006800F0C3F858B10C48006809
:401C00004FF080730B4A0C490FB40FB46FF00600004700BF6FF0060062B6004762B600DF08B0704720ED00E01CED00E004ED00E05083FF1F611C00001D1C0000EFF30880F5
:401C4000054908600548006880F3088870470248006880F3088870472C82FF1F2082FF1F411C8900154A11440968154A136899421AD0F0B444464D4656465F46F0B400B542
:401C8000104C9B002344EFF308851D60116089002144096881F3088802BC8E46F0BCA046A946B246BB46F0BC002806DB00B500F05BF802BC8E46FFF7D3BF7047942E0000BA
:401CC0003083FF1F2482FF1FF0B444464D4656465F46F0B400B5EFF3038308B48000174901440968164A0244EFF30883136088471448804704BC4FF08070024382F303888E
:401D000001BC8646F0BCA046A946B246BB46F0BC704780000A4901440A6882F3088804BC4FF08070024382F3038808BC9E46F0BCA046A946B246BB46F0BC70476C2E00005B
:401D40006883FF1F491D000008B572B6014B1868FFF7DFFFD481FF1F08B5024B1868FFF7B3FF08BDD481FF1F08B562B6FFF7F4FF72B600F041F8014B186808BD5083FF1F01
:401D800000280BDA20F000400130054B53F82000044B1B68181A18BF0120704701207047942E00003083FF1F054B53F82020054B53F820309A4201D1012070470020704799
:401DC0004081FF1F242E000008B5FFF77DFD084B53F8203043B10022054B43F8202040F00040044B186008BD024B186008BD00BFE882FF1F5083FF1F38B5364B1C680022E4
:401E0000354B1A60354A52F82430013342F82430334B53F824502046FFF7C6FF012801D0A54204D103222F4B43F8242003E002222C4B43F824202C4B53F824102B4A1368B4
:401E400023EA010313602A4B53F82440214B1C60B5F1FF3F0FD0234B53F82530032B07D10222204B43F825200022224B43F825202846FFF78FFDFFF76BFDB0F1FF3F0BD1D4
:401E8000B4F1FF3F03D00022164B43F8242044F00044194B1C6038BD184B53F82020134B1B689A4208D800220E4B43F8242044F00044114B1C6038BD00210A4A42F8201074
:401EC000094A52F820201343084A1360FFF77CFF38BD00BFD481FF1F4083FF1F4081FF1F0481FF1FEC81FF1F382E00002C83FF1FD881FF1F1083FF1F5083FF1F582E000092
:401F0000014B1868704700BF9082FF1F0E4B70B51E460E4C0025E41AA410A54204D056F8253098470135F8E701F038F8084B094C1E46E41AA4100025A54204D056F8253068
:401F400098470135F8E770BDA82F0000A82F0000A82F0000B02F000010B5431E0A44914204D011F8014B03F8014FF8E710BD03460244934202D003F8011BFAE77047000090
:401F8000194B10B51C68A36BD3B9182000F056F843F20E33A06303804AF6CD33438041F2342383804EF26D63C3804DF6EC630381052343810B23838101220023C0E904233B
:401FC000A16B0A4C0B6948695C43094A02FB0040A3FB02230132034443F10003C1E9042323F0004010BD00BF9082FF1F2DF451582D7F954C0EB400B54FF402719CB0ADF862
:4020000014106FF00041049107914FF6FF711DAB02900690084853F8042BADF81610006802A9019300F016F9029B00221A701CB05DF804EB03B070479082FF1F024B014648
:40204000186800F04FB800BF9082FF1F38B50546002944D051F8043C0C1F002BB8BFE41800F0C1FB1E4A1368114613B96360146030E0A3420DD92268A018834201BF186828
:402080005B681218226063600C6023E0A24203D813465A68002AF9D118681918A1420BD12168014458188242196013D110685268014419605A600DE002D90C232B6009E0CD
:4020C00021686018824201BF106852680918216062605C602846BDE8384000F085BB38BD3883FF1F70B5CD1C25F0030508350C2D38BF0C25002D064601DBA94202D90C236D
:40210000336046E000F06FFB234B1C681A462146A1B10B685B1B0ED40B2B03D90B60CC18CD501EE08C420BBF63684B681360636018BF0C4615E00C464968E9E7174C23680F
:402140001BB9304600F016FB20602946304600F011FB431C18D0C41C24F00304A0420DD12560304600F040FB04F10B00231D20F00700C31A0ED05A42E25070BD211A3046CD
:4021800000F0F8FA0130EBD10C233360304600F02BFB002070BD00BF3883FF1F3483FF1F2DE9F0478E6882469E420C46914698463ED88A8912F4906F3AD0256809690223FA
:4021C0006F1A656905EB450595FBF3F57B1C43449D4238BF1D4653050FD52946FFF782FF064698B13A462169FFF7B6FEA38923F4906343F08003A38113E02A4600F0F5FAC2
:40220000064670B921695046FFF720FF0C23CAF80030A3894FF0FF3043F04003A381BDE8F08726613E44266046466561ED1BA560464528BF464649463246206800F0B8FA66
:40224000A36800209B1BA36023681E442660BDE8F08700002DE9F04F9DB003938B8980461C060D4616460DD50B695BB94021FFF739FF2860286118B90C23C8F80030CDE061
:4022800040236B610023099320238DF82930DFF89CB130238DF82A3037463C4614F8013B1BB9B7EB060910D003E0252BF9D02746F3E74B46324629464046FFF771FF013035
:4022C00000F0A780099B4B4409933B78002B00F0A08000234FF0FF3204930793059206938DF853301A930126052221784E4800F051FA671C049B38B14B4A3C46801A06FAED
:4023000000F018430490EFE7D90644BF20228DF853201A0744BF2B228DF8532022782A2A03D0079A00210A200BE0039A111D12680391002A10DA524243F0020007920490E8
:402340000BE027463B780134303B092B03D800FB02320121F5E701B107923B782E2B1ED17B782A2B0AD1039B02371A1D1B680392002BB8BF4FF0FF33059310E000231946CA
:402380000593781C0A2407463A780130303A092A03D804FB01210123F5E703B1059103223978224800F0F6F940B14023CBEB000003FA00F0049B01371843049039780622FB
:4023C0001B487E1C8DF8281000F0E4F988B1194B33B9039B073323F007030833039314E003AB00932A46144B04A94046AFF3008007E003AB00932A460F4B04A9404600F099
:4024000093F8B0F1FF3F824603D0099B5344099342E7AB895B0601D4099801E04FF0FF301DB0BDE8F08F00BF662F00006C2F0000702F000000000000A12100002DE9F047AF
:4024400091461F460A698B6806469342B8BF1346C9F8003091F843200C46DDF8208012B10133C9F800302368990642BFD9F800300233C9F80030256815F0060510D104F178
:40248000190A07E00123524639463046C04701301AD00135E368D9F800209B1A9D42F1DB94F843302268003318BF012392060FD5E118302081F843005A1C94F84510224478
:4024C000023382F8431003E04FF0FF30BDE8F08704F1430239463046C0470130F4D02268D9F80050E36802F00602042A08BF5D1B2269A3680CBF25EAE57500259342C4BF9E
:402500009B1AED184FF000091A344D4509D00123224639463046C0470130D5D009F10109F3E70020BDE8F0872DE9F04317460A7E85B06E2A984606460C460C9B01F1430E07
:4025400000F0AE8011D8632A22D009D8002A00F0BB80582A40F0CA8081F84520834955E0642A1ED0692A1CD0C0E0732A00F0B08009D86F2A2ED0702A40F0B8800A6842F04E
:4025800020020A603EE0752A24D0782A3AD0ADE01A6801F14205111D1960136884F84230A8E021681A6811F0800F02D0111D196008E011F0400F02F10401196002D0B2F918
:4025C000003000E01368002B3CDA2D225B4284F8432037E021681A6811F0800F02D0111D196007E011F0400F02F10401196001D0138800E01368227E5C496F2A14BF0A22CD
:4026000008221BE078225A4984F845202268186812F0800F00F104051D6003D1550601D5038800E00368D00744BF42F0200222601BB9226822F0200222601022002084F8D8
:40264000430001E049490A226568002DA56008DB206820F0040020602BB9002D7DD175460CE0002B79D07546B3FBF2F002FB1033CB5C05F8013D03460028F5D1082A0BD1CE
:402680002368DA0708D5236962689A42DEBF302305F8013C05F1FF35C5EB0E0323612EE008681A6810F0800F496903D0101D1860136808E010F0400F02F1040018601368B1
:4026C00001D0198000E0196000232361754616E01A68111D1960156800216268284600F059F808B1401B6060636804E004F1420584F8422001232361002384F84330CDF863
:4027000000803B4603AA21463046FFF797FE013002D14FF0FF3026E023692A4639463046C0470130F5D023689B0710D5002504F1190907E001234A4639463046C047013007
:40274000E7D00135E368039A9B1A9D42F2DBE068039B9842B8BF184605E00B7804F1420584F842308AE705B0BDE8F083772F0000882F000038B5064C0023054608462360E3
:40278000FEF79AF8431C02D1236803B12B6038BDA08DFF1F10B5C9B202449042034605D01C7801308C42F8D1184610BD002010BD884210B501EB020301D8421E0BE09842EE
:4027C000FBD28118D21AD34204D013F8014D01F8014DF8E710BD994204D011F8014B02F8014FF8E710BD70477047F8B5074615460E4621B91146BDE8F840FFF773BC1AB93B
:40280000FFF724FC2846F8BD00F015F885420ED929463846FFF766FC044650B131462A46FFF79AFB31463846FFF710FC01E03046F8BD2046F8BD51F8040C0028BEBF091875
:4028400051F8043CC0180438704700000000000057656C636F6D6520746F205265616374696F6E2047616D650D0A00005265616374696F6E20746573742070726F6772616F
:402880006D20726F756E643A20310D0A000000005072657373206F6E65206F66207468652074776F20627574746F6E7320746F2073746172742E2E2E0D0A0000546F6F200F
:4028C000536C6F770D0A00004772656174202D20636F727265637420627574746F6E20707265737365640D0A000000005265616374696F6E2074696D6520696E206D733AAC
:402900002000000057726F6E6720627574746F6E20707265737365642E0D0A003D3D3D3D3D3D3D3D3D3D3D3D3D3D3D3D3D3D3D3D3D3D3D3D3D3D3D3D3D3D3D3D3D3D3D3DBF
:402940003D3D3D3D0D0A00005265616374696F6E20746573742070726F6772616D20726F756E643A2000000047616D65204F7665720D0A0053636F7265203D2025640D0A17
:4029800000000000546F74616C2054696D6520696E206D73203D2025750D0A00417665726167652054696D6520696E206D73203D2025750D0A000000FF000000F40100FFBD
:4029C0000000F4010000FF00F401000000006400FFFFFF006400000000006400FFFFFF006400000000006400FFFFFF0064000000FC60DAF266B6BEE0FEF6EE3E9C7A9E8E5B
:402A00000100000000000100010001000100010001000100010002000200020002000200020002000200020002000200020003000300030003000300030003000400040058
:402A40000400040004000400050005000500050005000600060006000600070007000700080008000800090009000A000A000A000B000B000C000C000D000D000E000F0053
:402A80000F00100011001100120013001400150016001700180019001A001B001C001D001F0020002100230024002600280029002B002D002F0031003400360038003B0008
:402AC0003D0040004300460049004C004F00530057005B005F00630067006C00700075007B00800086008C00920098009F00A600AD00B500BD00C500CE00D700E100EB009C
:402B0000F50000010B011701240130013E014C015B016A017A018B019C01AF01C201D601EA01000217022E02470261027C029802B502D402F402160339035D038303AB037E
:402B4000D50300042D045D048E04C204F80430056B05A805E8052B067106BA0606075607A90700085B08B9081C098309EF09600AD50A500BD10B560CE20C740D0D0EAC0ED7
:402B8000520F0010B510731138120713DF13C014AB15A116A117AD18C419E91A1A1C581DA51E00206B21E52271240E26BD278029562B412D422F5A318933D1353338B03AE4
:402BC000493D0040D542CB45E2481C4C7A4FFF52AC56825A845EB3621267A26B66706075927A0080AA85958BC3913798F59EFEA558AD04B508BD66C524CE44D7CCE0C0EAF1
:402C000025F5FFFF405100403000F0510040100000000140001000140140000800400140000A004C014000020050014020000000FF00010102020202030303030303030350
:402C40000404040404040404040404040404040405050505050505050505050505050505050505050505050505050505050505050606060606060606060606060606060614
:402C80000606060606060606060606060606060606060606060606060606060606060606060606060606060606060606060606060707070707070707070707070707070784
:402CC0000707070707070707070707070707070707070707070707070707070707070707070707070707070707070707070707070707070707070707070707070707070714
:402D000007070707070707070707070707070707070707070707070707070707070707070707070707070707070707070707070701000000382D00000000000000000000DD
:402D4000020000000000000000000000FFFFFFFF01000000010000000400000000000000FFFFFFFF00000000030000000000000000000000FFFFFFFF000000000400000050
:402D80000000000000000000FFFFFFFF01000000010000000400000000000000FFFFFFFF000000000000000000000000000000000100000000000000000000000200000012
:402DC00000000000000000000300000000000000000000000400000000000000000000000100000002000000030000000400000000000000010000000200000003000000BC
:402E000004000000102700000100000000000000000000000100000000000000000000000000000001000000010000000100000001000000010000008000000010000000C0
:402E4000800000000100000001000000010000000200000004000000010000001000000080000000010000000100000061010000D9010000B5020000B5050000C1050000C3
:402E8000591D0000591D0000591D0000591D0000591D0000000000000000000001000000000000000000000000000000616C726D5F74696D65720000616C726D5F72616E4B
:402EC000646F6D5F74696D6500000000616C726D5F66616465720000616C726D5F676C6F77657200616C726D5F74696D656F75740000000065765F427574746F6E315F5034
:402F0000726573730000000065765F427574746F6E325F50726573730000000065765F54696D656F7574000074736B5F696E69740000000074736B5F6576656E7400000027
:402F400074736B5F74696D657200000074736B5F666164657200000074736B5F676C6F77657200004300232D302B2000686C4C006566674546470030313233343536373885
:402F800039414243444546003031323334353637383961626364656600000000F8B500BFF8BC08BC9E4670474D00000035090000F8B500BFF8BC08BC9E467047290000002F
:402FC000D02F0000C880FF1FD0010000100B00000000000001000000FFFF0000A88DFF1F0000E02EC05D00001800000000366E01AC2E0000B82E0000CC2E0000D82E000086
:40300000E42E000000000000FFFFFFFFFFFFFFFFFFFFFFFFFFFFFFFFFFFFFFFFFFFFFFFF01000000020000000300000004000000FFFFFFFF00000000040000000700000085
:4030400000000000000000000100000001000000010000000100000001000000FFFFFFFFFFFFFFFFFFFFFFFFFFFFFFFFFFFFFFFFFFFFFFFFFFFFFFFFFFFFFFFFFFFFFFFF6F
:40308000FFFFFFFFFFFFFFFFFFFFFFFFFFFFFFFFFFFFFFFFFFFFFFFFFFFFFFFFFFFFFFFFFFFFFFFFFFFFFFFFFFFFFFFFFFFFFFFFFFFFFFFFFFFFFFFFFFFFFFFFFFFFFFFF50
:4030C000FFFFFFFFFFFFFFFFFFFFFFFFFFFFFFFFFFFFFFFFFFFFFFFFFFFFFFFFFFFFFFFFFFFFFFFFFFFFFFFFFFFFFFFFFFFFFFFFFFFFFFFF030000000300000003000000FB
:403100000300000003000000F42E0000082F00001C2F0000282F0000342F0000402F00004C2F0000582F0000A08DFF1F00000000748BFF1F00000000000000000000000052
:40314000000000000000000000000000000000000000000000000000642F0000000000000000000000000000000000000000000000000000000000000000000000000000BC
:403180000000000000000000000000000000000000000000000000003082FF1F0000000000000000000000000000000000000000000000000000000000000000000000003F
:4031C00000000000000000000000000000000000000000000000000000000000000000000000000000000000000000000000000000000000000000000000000000000000CF
:40320000000000000000000000000000000000000000000000000000000000000000000000000000000000000000000000000000000000000000000000000000000000008E
:40324000000000000000000000000000000000000000000000000000000000000000000000000000000000000000000000000000000000000000000000000000000000004E
:40328000000000000000000000000000000000000000000000000000000000000000000000000000000000000000000000000000000000000000000000000000000000000E
:020000040003F7
:0200000480007A
:400000000852004006640040036500405B020140350301400505014058080140480901405B0A0140470B01405C0C0140340D014053180140481901404C1A01404C1B01403E
:400040000240014009410140074201400645014006460140014701400E4C01400F4D0140065001400151014000400140086309A61028110961806440820D830D890D8A0D26
:400080008B0D8C0D887289388A0F020406010B0112021A022502260129022F013004310232023401350139023F114040410645D14620480B49FF4AFF4BFF4DA04F0450181F
:4000C00052805405580459045A045B045C015D115F01604062C06440654066C068C06AC06CC06EC0860187019204970298029B049F01A504AA02B104B201B301B404B50260
:40010000B602BF04C020C105C5D0C602C701C816C9FFCAFFCBFFCDA0CF04D018D280D405D804D904DA04DB04DC11DD11DF01E040E2C0E440E540E6C0E8C0EAC0ECC0EEC05F
:4001400002200408050209200B400C200D0210081508180819841A041D021E601F10212022042380274829042E402F2830283140328038083F204204450249414C204D0169
:400180004E204F20500851045280571059815A085D015F8873407502C034C25AC422CA72CC0ECE22D084D228D6DBAB40AF28B210B310EAA003010470060C0C100D04120339
:4001C0001302146C16111C091E102620270228142C5C2E02301F310432603302370138083E043F055280580459045B045C205D205F01810883028406870C890C8C04900F12
:400200009409960698079A089B0C9E09A006A209A30CA504A702A802A90CAB01AD0CB10CB207B40EB703BA22BF40C024C105C203C401C6ECC80CC9FFCAFFCBFFCC62CDA063
:40024000CEF0CF41D00CD405D804D904DA04DB04DD10DF01E640E702E910EA30EB10ED10EE10EF12000801800621072008880A800B040E6111021204144015041608174520
:4002800018081A801B291D081E402001220125402605270128A02B052F103320370139223B043C023E404089411243084B805080521059055B8074017E407F4082018C0407
:4002C0008D01900491049211970599059A019B409C489E309F20A280A480A508A634A729C0A5C2BFC4EACA4FCC84CE97D00FD208D60BE40102010304060407010A080B04C8
:40030000140217021A041B011F0222082401280129012D01320833043404350136033702388039203E143F444040410645D04621480E49FF4AFF4BFF4DA04F0450185405B7
:40034000580459045A045B045D225F01604062C06440654066C068C06AC06CC06EC08202870389018B0699019B0E9D0C9E019F03A308AF0CB002B10FB401BB02C003C740E1
:40038000C9FFCA07CBFFCC40CD20CEF0CF05D008D280D405D804D904DA04DB04DC02DD20DF01E040E1A8E240E320012002100340068009200A200D401010124013201804F0
:4003C00019841A011D101F0321202284274028082B012D802E023080332834103610374038203B063D043E204302450849024B204D044E1050105140531056035880590254
:400400005A085E085F8176808F84921095809702988099219A409B049C409D10A620AF20B201B314C01EC286C40ECA9CCC3ECE67D041D204D6DBE802010402020A040E0193
:4004400016041B0420012A082B012F0330013202330134043504360837023E104030410245D04712483249FF4AFF4BFF4DA04F04501852805405580459045A045B045C2286
:400480005D225F01604062C06440654066C068C06AC06CC06EC0830486048F0690019B01A301A902AA07AE08B002B102B201B304B408B501B604C060C105C5D0C602C701F1
:4004C000C816C9FFCAFFCBFFCDA0CF04D018D280D804D904DA04DB04DC21DD11DF01E040E2C0E440E540E6C0E8C0EAC0ECC0EEC00320050206090A400D081208134017117E
:4005000019201A521B201C421D081E081F08210223142725284029102F0A32203310362039803B023C024508460849214B804F0152485340560957025C405E085F01608025
:40054000610273407502C0D4C228C453CA35CC24CE89D060D20CD6D04010410249FF4AFF4BFF4DA04F045018560257135A045B045D025F01604062C06440654066C068C0B2
:400580006AC06CC06EC0840C8508880389188C088D1C8F01901F93039413960C9801991C9B029D1F9E03A01FA104A41CA603A704A804A907AB18AC02AD10B010B20FB51F74
:4005C000BA08BB20BE01C010C102C5D1C620C80BC9FFCAFFCBFFCDAFCE0FCF04D018D418D804D904DA04DB04DD02DF01E040E2C0E440E540E6C0E8C0EAC0ECC0EEC00008C8
:400600000180020808A80A9011021244134419021A1022102304280829802A022B10310232503A5440024120440245604A204B01512053105A025D026004628068016921F8
:400640006B106D246F01704173187404758076147A087B048B10900492839502972598809A019B449C289D809E0C9F20A141A280A404A502A630A704B610B780C007C20FEE
:40068000C40FCA0FCC0DCE0ED03CD681D80C0101020103020401050308020A0C0D020E010F0110081202140119041A011C041E12240E2503280E30013103320E33043410B4
:4006C0003E013F045401580459045B045F01800682018308851089108A018E02911095039603970C99039B049D0A9E069F04A503A704AA05AB05B110B207B30FBA08BB08BD
:40070000C023C106C50CC6E0C70BC819C9FFCAFFCBFFCEF0CF44D00CD804D904DA04DF01E6C0EA40EB020010020203500601074409080B550E2111241204171018101A405C
:400740001B141D081E202101220423402502260827302A042D082E2030203618374139043A023B413D243E01462047244D084E104F145420560858015A68820283048421B0
:4007800088208A0291049201950297409A019B459C209E0A9F20A110A502A610A714AB10AD01B001B110B308B441C0DFC2AFC446CA62CCF4CEEBD060D220D60FE80C324051
:4007C000CC1006020B20630264109680C080C210D640D880AA40AE02AF10B010B301EC50EE8058805A015F206401D401D607AC01B080B201B320E804EC058004534057206D
:4008000059805B045E015F80600864048A019008D407D607D803E4011040700488409008A980AF40B004B3A0B408B704C408DC01E201E803EC0D000708020C070E06100560
:400840001C05000318C0C000C000000080004080800080000000000000FFFF00FF0000000039390039000000002020000000000000000000000000000000000000000000D4
:400880000000000000000000000000000000000000000000000000000000000000000000000000000000000000000000000000000000000000000000000000000000000038
:4008C00000000000000000000000000000000000000000000000000000000000000000000000000000000000000000000000000000000000000000000000000000000000F8
:4009000000000000000000000000000000000000000000000000000000000000000000000000000000000000000000000000000000000000000000000000000000000000B7
:400940000000000000000000000000000000000000000000000000000000000000000000000000000000000000000000000000000000000000000000000000000000000077
:0200000490006A
:0400000000004007B5
:0200000490105A
:04000000BC90ACAF55
:0200000490303A
:0200000040813D
:0200000490402A
:4000000000000000000000000000000000000000000000000000000000000000000000000000000000000000000000000000000000000000000000000000000000000000C0
:400040000000000000000000000000000000000000000000000000000000000000000000000000000000000000000000000000000000000000000000000000000000000080
:400080000000000000000000000000000000000000000000000000000000000000000000000000000000000000000000000000000000000000000000000000000000000040
:4000C0000000000000000000000000000000000000000000000000000000000000000000000000000000000000000000000000000000000000000000000000000000000000
:0200000490501A
:0C00000000012E16106900012E2A50EAA3
:00000001FF